:1000000048C1000077C1000075C1000073C1000045
:1000100071C100006FC100006DC100006BC1000024
:100020000C94390F67C100000C9420290C94582AB5
:1000300061C100000C94C1275DC100005BC10000DC
:1000400059C1000057C1000055C1000053C1000054
:100050000C94081A4FC100004DC100000C94F31B12
:1000600049C100000C94A1200C94852143C10000DB
:1000700041C100003FC100003DC100003BC1000084
:1000800039C1000037C1000035C1000033C1000094
:100090000C94D4200C94C4212DC100002BC100006D
:1000A00029C1000027C1000025C1000023C10000B4
:1000B00021C100000C9420281DC100001BC10000BC
:1000C00019C1000017C1000015C100000C940721E0
:1000D0000C9403220FC100000C943A210C9442228C
:1000E00009C10000036EDB363D9A9999993DABAA90
:1000F000AA2A3E000000803F084AD73B3BCE016E53
:1001000084BCBFFDC12F3D6C74319ABD56833DDA6E
:100110003D00C77F11BED9E4BB4C3E916BAAAABE7D
:10012000000000803F072C7AA5BA6CC590DA3B939B
:1001300065FC8BBC53F810FD3C5692834DBD879DEA
:100140003AB63DCBC9BF5BBE73DA0FC93F000000B2
:10015000000000000000000000000000000000009F
:100160000000000000000000000F1011000000005F
:100170000007000D000C000B000000000000020151
:100180000809030400000000000000000A0000004D
:100190000000000000000000060000000001020452
:1001A0000810204080010204081020408001020451
:1001B0000801020408010204081020408080800128
:1001C000400220041008081004200240012080088A
:1001D00010204080010204081020402040800102CD
:1001E00004081020408004100104080201010101EC
:1001F00001010101030303030303030306060606CB
:100200000B0B0B0B0C0C0C0C0C0C0C0C0B080A083D
:100210000A080A080A080A080A080A08070205055F
:100220000202040404040404040405050507070786
:1002300007070B0B0A05020202020200002000233E
:1002400000260029002C002F0032000001000003CE
:10025000010601090100002200250028002B002EC4
:10026000003100340002010000050108010B01000B
:10027000002100240027002A002D00300033000157
:10028000010000040107010A01026B02D71459237F
:10029000CE0211241FBECFEFD1E2DEBFCDBF00E002
:1002A0000CBF13E0A0E0B2E0E2E6F3E600E00BBF33
:1002B00002C007900D92A03EB107D9F727E0A0EE4B
:1002C000B3E001C01D92A93FB207E1F711E0C8E415
:1002D000D1E000E006C021970109802FFE010E94B5
:1002E0005E2EC534D10780E00807A9F70E94E61BFF
:1002F0000C94A03185CECF93DF93EC018CE294E097
:100300000E94A21240E456E068E185EC94E00E946D
:10031000181B40E456E069E185EC94E00E94181B4C
:1003200064E670E080E090E00E94621C8CE294E061
:100330000E94711220E030E047E853E40E94442D0F
:10034000181674F34E855F8568E185EC94E00E9491
:10035000181B4889598969E185EC94E0DF91CF91B8
:100360000C94181B04D380E894E00E94011460E010
:1003700082EE94E00E94541B62E080E00E945F1DC8
:1003800062E081E00E945F1D68E185EC94E00E94DC
:10039000C01A69E185EC94E00E94C01A0C944B1BD2
:1003A00080E00E94C81D892BE1F581E00E94C81DF4
:1003B000892BB9F54091EE035091EF0368E185EC8C
:1003C00094E00E94181B4091F0035091F10369E101
:1003D00085EC94E00E94181B8CE294E00E94A2122B
:1003E00048E755E068E185EC94E00E94181B48E777
:1003F00055E069E185EC94E00E94181B8CE294E0E2
:100400000E94711220E030E044EB52E40E94A42BE1
:1004100087FF15C064E670E080E090E00E94621CF7
:10042000EDCF4091F2035091F30368E185EC94E045
:100430000E94181B4091F4035091F503C8CF4091DE
:10044000EE035091EF0368E185EC94E00E94181BE5
:100450004091F0035091F10369E185EC94E00E9432
:10046000181B80EE93E047DF8CE294E00E94A2121A
:1004700048E755E068E185EC94E00E94181B48E7E6
:1004800055E069E185EC94E00E94181B8CE294E051
:100490000E94711220E030E044E353E40E94A42B58
:1004A00087FF07C064E670E080E090E00E94621C75
:1004B000EDCF4091EE035091EF0368E185EC94E0BD
:1004C0000E94181B4091F0035091F10369E185EC03
:1004D00094E00C94181B0F931F93CF93DF93CDB729
:1004E000DEB72E970FB6F894DEBF0FBECDBF67E024
:1004F00072E0CE01089663D16EE072E0CE01019603
:100500005ED163E973E080EE93E059D163E973E073
:1005100087EE93E054D100EE13E08CED95E0F80106
:10052000938B828B958B848BBE016F5F7F4FC8014D
:100530005BD1BE01685F7F4F87EE93E055D140E00D
:1005400060E080E894E00E949A14B80180E894E0AA
:1005500062D040E061E080E894E00E949A1467EE87
:1005600073E080E894E057D089E596E0F80197873A
:10057000868786E495E0918B808BCE010196B3D07F
:10058000CE010896B0D02E960FB6F894DEBF0FBEFF
:10059000CDBFDF91CF911F910F91089587EE93E02A
:1005A000A2D080EE93E09FC0CF92DF92EF92FF92B5
:1005B0000F931F93CF93DF936C01EB017B01E40E4C
:1005C000F51E10E000E0CE15DF0561F06991D6015F
:1005D000ED91FC910190F081E02DC6011995080F75
:1005E000191FF1CFC801DF91CF911F910F91FF909B
:1005F000EF90DF90CF900895FB0101900020E9F784
:100600003197AF01461B570BDC01ED91FC91028045
:10061000F381E02D1994AF92BF92CF92DF92EF92C7
:10062000FF920F931F93CF93DF937C016B01D0E078
:10063000C0E010E000E0D60114968D919C91C8179F
:10064000D90780F4D701ED91FC91A080B180BE0163
:10065000C601DFD0682FC701F5011995080F191FD2
:100660002196E9CFC801DF91CF911F910F91FF90A3
:10067000EF90DF90CF90BF90AF9008956115710516
:1006800009F0BACF90E080E00895DC01ED91FC9193
:100690000190F081E02D19940F931F93CF93DF9376
:1006A000EC016DE0F2DF8C016AE0CE01EEDF800F3D
:1006B000911FDF91CF911F910F9108950F931F9379
:1006C000CF93DF938C01D0E0C0E06115710511F08C
:1006D00093DFEC01C801E0DF8C0F9D1FDF91CF910C
:1006E0001F910F910895FC01808191810C948C1EC3
:1006F000CF93DF93EC0188819981009711F00E94DC
:100700008C1E198218821D821C821B821A82DF9124
:10071000CF9108950F931F93CF93DF93EC018B013B
:100720006F5F7F4F888199810E94151F009751F05C
:10073000998388831B830A8381E0DF91CF911F9186
:100740000F91089580E0F9CFCF93DF93EC0188817A
:100750009981892B49F08A819B818617970720F020
:1007600081E0DF91CF910895CE01D4DF8823C9F3D2
:100770008C819D81892BA1F7E881F9811082F0CFCE
:10078000EF92FF920F931F93CF93DF93EC017B01C6
:100790008A01BA01D9DF81110AC0CE01A9DFCE01D9
:1007A000DF91CF911F910F91FF90EF9008951D83DE
:1007B0000C83B701888199810E94AA2EF0CFFC0199
:1007C00011821082138212821582148216826115A0
:1007D000710549F0FB0101900020E9F73197AF0165
:1007E000461B570BCDCF0895CF93DF93EC01FB0150
:1007F0008617970741F0608171816115710539F0A5
:1008000044815581BDDFCE01DF91CF91089570DF26
:10081000FACFFC01248135816217730748F4808187
:100820009181009729F0860F971FFC018081089520
:1008300080E00895CF93DF9381E00E943E1B8823E0
:10084000D9F3D0E0C0E081E00E943E1B811103C0DB
:10085000C431D1056CF48FE99FE00197F1F700C036
:10086000000081E00E943E1B8111EBCF2196EBCF6F
:10087000DF91CF910895AF92BF92CF92DF92EF9226
:10088000FF920F931F93CF93DF931F92CDB7DEB7E5
:10089000E62EF12C9701280F311D213831050CF07F
:1008A00046C0C52E042FD82EF8940E947913182F15
:1008B00080EA0E948E13180F8D2D0E948E13180F40
:1008C0000E947913180F81EA0E948E13180FA02E30
:1008D000BC2CD12CC12CCE14DF04A1F0CE0101968A
:1008E0000E942D13180F8981F50181935F01FFEF9D
:1008F000CF1ADF0AEC14FD04B1F40E944F13180F55
:100900000E94F112789481E0111101C080E00F90F3
:10091000DF91CF911F910F91FF90EF90DF90CF90DB
:10092000BF90AF9008950E946413180FD4CF82E057
:10093000EECF809107018F7E80930701809108019F
:100940008F7E8093080188E080937B0084E480930D
:100950007C0080917A00806480937A0080917A0094
:1009600086FDFCCF809178009091790008957F9268
:100970008F929F92AF92BF92CF92DF92EF92FF92AF
:100980000F931F93CF93DF93CDB7DEB7A1970FB629
:10099000F894DEBF0FBECDBFAE014B5E5F4F67E088
:1009A00089E769DFFE0175966E012CE1C20ED11C4C
:1009B00080E09191292F2827CE16DF0609F0CFC2BB
:1009C00010E000E0981709F472C18D89883C09F4A1
:1009D000C8C210E000E08E89883C19F40E944B1BCD
:1009E000026088EF93E0A6D321E030E09F89983C35
:1009F00011F030E020E090E028233923232B21F070
:100A000088EF93E019D308608CE294E00E945C12B6
:100A100021E030E0988D983C11F030E020E090E04B
:100A200028233923232B29F08CE294E00E944D12D5
:100A3000006185E894E00E94801721E030E0998D04
:100A4000983C11F030E020E090E028233923232B5C
:100A500029F085E894E00E94411700628A8D883C65
:100A600031F48AEF93E09CD3892B09F4046061DFB1
:100A70004FE0489F9001499F300D112437FF02C07D
:100A800021503C4F732E770C7708E32EE594E594C4
:100A9000F72C2CED35E0DC010E947B2E20E034E0C9
:100AA00040E050E00E94422E49015A019701ACE912
:100AB000BFEF0E94662E860E971EA81EB91E84E107
:100AC00088169104A104B1040CF0F1C096E0E91677
:100AD000F10409F0ECC09F928F927F92EF9288E12F
:100AE00092E09F938F93CE0101967C019F938F9309
:100AF0000E94B12E40E855E260E070E083E595E0A9
:100B00000E94812262E272E083E595E0D7DDB701C1
:100B100083E595E0D3DD0FB6F894DEBF0FBECDBF01
:100B200000FF15C080E894E00E94501462E272E079
:100B300080E894E00E94641440E061E080E894E082
:100B40000E949A14B70180E894E00E94641422E0A5
:100B5000E22EF12C22E330E040E050E067E174E067
:100B600089E40E942B249FEF21EE84E091502040E5
:100B70008040E1F700C0000022E330E040E050E0B8
:100B800067E174E089E40E942B249FEF21EE84E06A
:100B9000915020408040E1F700C0000022E330E0A7
:100BA00040E050E067E174E089E40E942B249FEF6D
:100BB00023EC89E0915020408040E1F700C0000024
:100BC00026E930E040E050E067E174E089E40E940B
:100BD0002B249FEF23EC89E0915020408040E1F7E7
:100BE00000C0000026E930E040E050E067E174E03A
:100BF00089E40E942B249FEF23EC89E09150204050
:100C00008040E1F700C0000026E930E040E050E01D
:100C100067E174E089E40E942B249FEF25EA8EE0CF
:100C2000915020408040E1F700C0000022E330E016
:100C300040E050E067E174E089E40E942B249FEFDC
:100C400021EE84E0915020408040E1F700C0000098
:100C500022E330E040E050E067E174E089E40E9484
:100C60002B249FEF21EE84E0915020408040E1F75B
:100C700000C0000022E330E040E050E067E174E0B3
:100C800089E40E942B249FEF27E883E191502040C4
:100C90008040E1F700C00000EA94EF2809F075C138
:100CA00089E40E94AD2780E894E00E94501405FF7B
:100CB00074C182E00E943E1B813009F06EC140E8A1
:100CC00055E260E070E083E595E00E9481226FE2EA
:100CD00072E083E595E0F2DC67E372E083E595E09E
:100CE000EDDC780121E0E222FF2400FF16C080E85D
:100CF00094E00E94501469E472E080E894E00E945D
:100D0000641440E061E080E894E00E949A146AE58F
:100D100072E080E894E00E94641482E00E943E1B2E
:100D20008130D9F38FEF95EA2EE08150904020403A
:100D3000E1F700C000006BE672E083E595E0BEDC01
:100D40006AE772E083E595E0B9DCE114F104B1F003
:100D500080E894E00E9450146BE672E080E894E032
:100D60000E94641440E061E080E894E00E949A14DC
:100D70006AE872E080E894E00E9464145BDD61E060
:100D800085E894E00E9424188FEF99E628E18150CD
:100D900090402040E1F700C0000069E972E083E57F
:100DA00095E08CDC6AE772E083E595E087DCE1148E
:100DB000F104B1F080E894E00E94501469E972E017
:100DC00080E894E00E94641440E061E080E894E0F0
:100DD0000E949A146AE872E080E894E00E94641429
:100DE00029DD62E085E894E00E9424188FEF95EAFF
:100DF0002EE0815090402040E1F700C000006AEAF8
:100E000072E083E595E05ADC6AE772E083E595E0FD
:100E100055DCE114F104B1F080E894E00E94501434
:100E20006AEA72E080E894E00E94641440E061E0C5
:100E300080E894E00E949A146AE872E080E894E006
:100E40000E946414F7DC63E085E894E00E942418B3
:100E50008FEF95EA2EE0815090402040E1F700C0EE
:100E6000000065EB72E083E595E028DC61EC72E060
:100E700083E595E023DCE114F104B1F080E894E02F
:100E80000E9450146BEC72E080E894E00E946414BD
:100E900040E061E080E894E00E949A146CED72E01A
:100EA00080E894E00E9464148FEF9DE329E4815070
:100EB00090402040E1F700C000006AE772E083E55F
:100EC00095E0FCDBE114F10481F080E894E00E94FD
:100ED000501440E061E080E894E00E949A146AE8CF
:100EE00072E080E894E00E9464148DEE882E82E027
:100EF000982ECE0101965C0181E00E943E1B81117B
:100F000048C09601AE01425E5F4FBE01605E7F4FFA
:100F100085E894E00E949E1789A18F9388A18F9302
:100F20009F928F92BF92AF920E94B12EB50183E53E
:100F300095E0C4DB0F900F900F900F900F900F90E3
:100F4000E114F104C9F240E060E080E894E00E941E
:100F50009A14B50180E894E00E946414CDCF822FEA
:100F600028CD80E894E00E940114892B09F031CD4E
:100F700080E894E00E94D01481E090E09093F70321
:100F80008093F60301E010E026CDEE24E394F12CEB
:100F9000E1CD80E894E00E9450141093F703009391
:100FA000F603C801A1960FB6F894DEBF0FBECDBF01
:100FB000DF91CF911F910F91FF90EF90DF90CF9035
:100FC000BF90AF909F908F907F9008958091F6038F
:100FD0009091F7030895FF920F931F93CF93DF93A0
:100FE000F82E8B01DDB3EF980E947913C82F80E7AC
:100FF0000E948E13C80F8F2D0E940E13C80F0E94DF
:10100000F1120E947913C80F81E70E948E13C80F56
:10101000C8010E942D13C80F0E944F139DB3D078B2
:10102000D92BDDBBC80F81E009F480E0DF91CF91BF
:101030001F910F91FF900895FF920F931F93CF93ED
:10104000DF931F92CDB7DEB719820DB3EF980E94E0
:101050007913182F80E70E948E13180F84E10E94E5
:101060000E13180F0E94F1120E947913180F81E7D6
:101070000E948E13180FCE0101960E942D13180F97
:101080000E944F13180F8981807E89830E947913F3
:10109000180F80E70E948E13180F84E10E940E1330
:1010A000180F89810E940E13180F0E94F1120E94DE
:1010B0007913180F80E70E948E13180F8BE00E949F
:1010C0000E13180F0E94F1120E947913180F81E776
:1010D0000E948E13180FCE0101960E942D13180F37
:1010E0000E944F13180FFF24F394F9820E94791382
:1010F000180F80E70E948E13180F8BE00E940E13CA
:10110000180F89810E940E13180F0E94F1128DB3DF
:101110000078082B0DBB8FEF9FEF111104C0F092E8
:10112000F90390E080E00F90DF91CF911F910F9134
:10113000FF900895CF93DF931F92CDB7DEB7BE0126
:101140006F5F7F4F80E047DF811104C081E09981AC
:10115000923009F080E00F90DF91CF9108955C9874
:101160002FEF81EE94E0215080409040E1F700C0E5
:1011700000005C9A2FEF8FE097E221508040904072
:10118000E1F700C00000089581E395E00E94F21F9E
:10119000892B29F081E395E00E941D20F5CF089569
:1011A000BF92CF92DF92EF92FF920F931F93CF9354
:1011B000DF93CDB7DEB760970FB6F894DEBF0FBEF2
:1011C000CDBF549A5C98569A5E9855985D980E9447
:1011D0004B1B40E056E960E070E081E395E00E943F
:1011E00081225E9ABCDFD0DF81E395E00E943F2040
:1011F0006BEF72E081E395E041DA8E010F5F1F4FE4
:101200007801D12CC12C26E0B22EB00E81E395E0FE
:101210000E94F21F892B29F58FE99FE00197F1F7D2
:1012200000C000009FEFC91AD90AA9ECCA16D10460
:1012300068F383E595E00E940023EE24EA94FE2CF7
:10124000C70160960FB6F894DEBF0FBECDBFDF9129
:10125000CF911F910F91FF90EF90DF90CF90BF90B3
:10126000089581E395E00E941D20F70181937F019D
:10127000BE12CCCF1F8266E073E0C8010E94A12E8F
:101280007C01892B09F052C181E08093FB039CE033
:10129000C92E94E0D92E10E000E081E395E00E9491
:1012A000F21F892BD1F381E395E00E941D20D60126
:1012B0008D936D018D3009F03CC1F801E45FFB4F67
:1012C000108215E081E395E00E94F21F892BD1F393
:1012D00081E395E00E941D201150A1F755DF6DE0DC
:1012E00073E081E395E0CAD916E081E395E00E94BE
:1012F000F21F892BD1F381E395E00E941D2011504C
:10130000A1F70CEF13E081E395E00E94F21F892B17
:10131000D1F381E395E00E941D20F801EC5FF340DA
:10132000D8018D938D018D3071F7E450FC4F108200
:1013300015E081E395E00E94F21F892BD1F381E350
:1013400095E00E941D201150A1F71EDF81E00E9450
:101350003E1B882309F4E6C039DE80FF18C040E058
:1013600060E080E894E00E949A1468E173E080E80D
:1013700094E00E94641440E061E080E894E00E9400
:101380009A1469E273E080E894E00E94641440E8F3
:1013900055E260E070E083E595E00E94812268E11B
:1013A00073E083E595E08AD96AE373E083E595E02D
:1013B00085D96CE473E08CE094E00E94AA2E67E586
:1013C00073E08CEF93E00E94AA2E6CE573E081E35A
:1013D00095E054D9BFEFE3ECF9E0B150E040F040C4
:1013E000E1F700C0000061E773E081E395E046D9D2
:1013F0002FEF83EC99E0215080409040E1F700C04E
:10140000000060E873E081E395E038D9AFEFB3EC1A
:10141000E9E0A150B040E040E1F700C0000064E91D
:1014200073E081E395E02AD9FFEF23EC89E0F150E6
:1014300020408040E1F700C0000081E395E00E9479
:101440003F209FEFABE6BBE69150A040B040E1F7F4
:1014500000C00000BBDD80FF1CC080E894E00E945B
:10146000501440E060E080E894E00E949A1460EA42
:1014700073E080E894E00E94641440E061E080E85A
:1014800094E00E949A146CE074E080E894E00E947A
:10149000641460EA73E083E595E010D96CE074E0D1
:1014A00083E595E00BD9EFEFFBE722E9E150F0404F
:1014B0002040E1F700C0000089DD80FF1CC080E80B
:1014C00094E00E94501440E060E080E894E00E94C4
:1014D0009A146BEA73E080E894E00E94641440E0A0
:1014E00061E080E894E00E949A146CEF73E080E879
:1014F00094E00E9464146AEA73E083E595E0DED824
:101500006CEF73E083E595E0D9D88FEF9BE7A2E914
:1015100081509040A040E1F700C0000080E894E0D6
:101520000E9450145E9830DE1ADE8ACE81E395E088
:1015300082CE0F5F1F4F0032110509F0AECEC1CE33
:10154000FF920F931F93CF93DF93F82E8B01DDB3A0
:10155000EF980E947913C82F86ED0E948E13C80F52
:101560008F2D0E940E13C80F0E947913C80F87EDAC
:101570000E948E13C80FC8010E942D13C80F0E942D
:10158000F1128DB3D078D82BDDBB81E0C11101C041
:1015900080E0DF91CF911F910F91FF900895AF925E
:1015A000BF92CF92DF92EF92FF920F931F93CF9350
:1015B000DF931F92CDB7DEB7D82EA62E7A010DB3DA
:1015C000EF980E947913182F86ED0E948E13180F42
:1015D0008D2D80680E940E13180F0E947913180F2A
:1015E00087ED0E948E13180F6701B12CF12CE12CAE
:1015F000EA14FB0481F0CE0101960E942D13180F0E
:101600008981F60181936F01FFEFEF1AFF0AEA1457
:10161000FB04A9F4E6D78DB30078082B0DBB81E05D
:10162000111101C080E00F90DF91CF911F910F91B8
:10163000FF90EF90DF90CF90BF90AF9008950E9401
:101640006413180FD5CF0F931F93CF93DF93082FF9
:10165000162FDDB3EF980E947913C82F86ED0E94F4
:101660008E13C80F802FDAD7C80F812FD7D7C80F96
:10167000B8D78DB3D078D82BDDBB81E0C11101C0C4
:1016800080E0DF91CF911F910F910895CF92DF926B
:10169000EF92FF920F931F93CF93DF9300D000D070
:1016A000CDB7DEB76C017B018A01AE014F5F5F4FA2
:1016B00066E088E274DF811120C089819A81F60199
:1016C000918380838B819C81F701918380838D81BD
:1016D0009E81F8019183808390E080E026960FB68A
:1016E000F894DEBF0FBECDBFDF91CF911F910F9158
:1016F000FF90EF90DF90CF9008958FEF9FEFEECFA8
:101700002F923F924F925F926F927F928F929F9211
:10171000AF92BF92CF92DF92EF92FF920F931F93FF
:10172000CF93DF9300D000D000D01F92CDB7DEB7AB
:101730007C01BE01695F7F4F8EE202DF8823D9F012
:101740008FEF9FEF2A960FB6F894DEBF0FBECDBF86
:10175000DF91CF911F910F91FF90EF90DF90CF908D
:10176000BF90AF909F908F907F906F905F904F90C1
:101770003F902F90089560E08EE265DF8111E0CF09
:1017800010922D0410922E0410922F041092300407
:1017900010923104109232041092330410923404E7
:1017A00010923504109236041092370410923804C7
:1017B00010E000E00E151F0509F467C0BE01685F68
:1017C0007F4F87E2BDDE8111BBCF888583FFF6CFD7
:1017D000AE014F5F5F4FBE016D5F7F4FCE0105963B
:1017E00055DF892B09F0ACCF8D819E81092E000C2D
:1017F000AA0BBB0B40912D0450912E0460912F0435
:1018000070913004840F951FA61FB71F80932D047D
:1018100090932E04A0932F04B09330048B819C816D
:10182000092E000CAA0BBB0B4091310450913204DD
:101830006091330470913404840F951FA61FB71F65
:101840008093310490933204A0933304B093340412
:1018500089819A81092E000CAA0BBB0B409135049B
:10186000509136046091370470913804840F951FAD
:10187000A61FB71F8093350490933604A0933704B6
:10188000B09338040F5F1F4F95CFF12CE12C60917E
:101890002D0470912E0480912F0490913004A701A3
:1018A00098010E94422E20932D0430932E044093E1
:1018B0002F04509330046091310470913204809170
:1018C000330490913404A70198010E94422E209382
:1018D00031043093320440933304509334046091C4
:1018E0003504709136048091370490913804A70133
:1018F00098010E94422E2093350430933604409381
:101900003704509338041092390410923A0410921C
:101910003B0410923C0410923D0410923E0410923D
:101920003F0410924004109241041092420410921D
:10193000430410924404312C212C0215130509F4A0
:10194000FBC0BE01685F7F4F87E2FADD8111F8CEF0
:10195000888583FFF6CFAE014F5F5F4FBE016D5F9D
:101960007F4FCE01059692DE892B09F0E9CE2D81BD
:101970003E813A872987C0902D04D0902E04E090B4
:101980002F04F0903004B901330F880B990B6C19B8
:101990007D098E099F090E94432C2B013C018090F8
:1019A000390490903A04A0903B04B0903C04A50107
:1019B00094010E94442D18160CF06AC0409239041C
:1019C00050923A0460923B0470923C042B813C811B
:1019D0003A872987C0903104D0903204E0903304D4
:1019E000F0903404B901330F880B990B6C197D0901
:1019F0008E099F090E94432C2B013C0180903D04DD
:101A000090903E04A0903F04B0904004A501940142
:101A10000E94442D18160CF057C040923D0450927D
:101A20003E0460923F047092400429813A813A87D3
:101A30002987C0903504D0903604E0903704F090A8
:101A40003804B901330F880B990B6C197D098E0985
:101A50009F090E94432C2B013C01809041049090EF
:101A60004204A0904304B0904404A50194010E9454
:101A7000442D18160CF044C0409241045092420488
:101A800060924304709244049FEF291A390A55CF9B
:101A9000A50194015058C301B2010E94A42B87FFF5
:101AA00095CF89859A85C81AD90AB601DD0C880BAD
:101AB000990B0E94432C6093390470933A048093ED
:101AC0003B0490933C0482CFA50194015058C3017C
:101AD000B2010E94A42B87FFA8CF89859A85C81AD6
:101AE000D90AB601DD0C880B990B0E94432C609338
:101AF0003D0470933E0480933F049093400495CF3F
:101B0000A50194015058C301B2010E94A42B87FF84
:101B1000BBCF89859A85C81AD90AB601DD0C880B16
:101B2000990B0E94432C609341047093420480936C
:101B3000430490934404A8CF209177043091780413
:101B40006091390470913A0480913B0490913C0477
:101B500080903D0490903E04A0903F04B0904004DB
:101B6000C0904104D0904204E0904304F0904404BB
:101B7000203D47E0340709F04EC020E030E04CE85B
:101B800052E40E944F2D20E030E04AE754E40E94E6
:101B9000A82B6093390470933A0480933B0490938C
:101BA0003C0420E030E04CE852E4C501B4010E945E
:101BB0004F2D20E030E04AE754E40E94A82B6093C8
:101BC0003D0470933E0480933F049093400420E0D2
:101BD00030E04CE852E4C701B6010E944F2D20E0EE
:101BE00030E04AE754E40E94A82B609341047093CC
:101BF000420480934304909344046F818EE223DD7A
:101C000021E030E0811102C030E020E088279927F0
:101C1000821B930B97CD243F314079F520E030E0D3
:101C20004CE851E40E944F2D20E030E04AE754E4B4
:101C30000E94A82B6093390470933A0480933B046C
:101C400090933C0420E030E04CE851E4C501B4013D
:101C50000E944F2D20E030E04AE754E40E94A82B78
:101C600060933D0470933E0480933F04909340043E
:101C700020E030E04CE851E4AECF20E030E04CE032
:101C800051E40E944F2D20E030E04AE754E40E94E6
:101C9000A82B6093390470933A0480933B0490938B
:101CA0003C0420E030E04CE051E4C501B4010E9466
:101CB0004F2D20E030E04AE754E40E94A82B6093C7
:101CC0003D0470933E0480933F049093400420E0D1
:101CD00030E04CE051E47FCFDF92EF92FF920F9320
:101CE0001F93CF93DF931F92CDB7DEB78C017B019B
:101CF000D42E6F98779A809A089A099A109811981A
:101D0000083F82E0180789F46FEC80E29CDC8823AE
:101D1000E1F00EEF1FEFC8010F90DF91CF911F91FF
:101D20000F91FF90EF90DF9008956FE80C3781E0FE
:101D3000180759F36FE40E3B110539F36FE00F35C7
:101D4000110519F30FEF1FEFE6CF10937604009300
:101D5000750466E181E277DC8111DBCF60E0D110B0
:101D600064E082E270DC8111D4CF60E280EDE8169D
:101D700087E0F80659F060E184EFE81681E0F806A4
:101D800029F08AEFE816F104E9F660E083E25BDC13
:101D90008111BFCFF0927804E092770461E1D11015
:101DA00061E584E250DC8111B4CFDD2011F08CE5D7
:101DB000D82E6D2D8EE247DC8111ABCF84E690E00A
:101DC0009FDC8C01892B09F0A4CF10925104109252
:101DD000520410925304109254041092550410921D
:101DE00056041092570410925804109259041092FD
:101DF0005A0410925B0410925C0410925D041092DD
:101E00005E0410925F0410926004109261041092BC
:101E1000620410926304109264041092650410929C
:101E200066041092670410926804EF98BE016F5F19
:101E30007F4F8FE285DB898185FD11C0F12CE12C7C
:101E400089818F718E151F0451F04CF049E754E0E1
:101E500066E088E2A4DB8FEFE81AF80AF1CF809100
:101E60006A00806C80936A00EF9A81E080937F041F
:101E700052CF1F920F920FB60F9211240BB60F92F2
:101E80004F925F926F927F928F929F92AF92BF928A
:101E9000CF92DF92EF92FF920F931F932F933F9376
:101EA0004F935F936F937F938F939F93AF93BF9362
:101EB000EF93FF93CF93DF931F92CDB7DEB7789464
:101EC000BE016F5F7F4F8FE23BDB8981807C09F42D
:101ED000C0C210E000E089818F718017110681F384
:101EE0007CF349E754E066E088E259DB60917904CD
:101EF00070917A0480912D0490912E04681B790BC7
:101F0000072E000C880B990B0E94432C4B015C019F
:101F10008092450490924604A0924704B0924804EF
:101F200060917B0470917C04809131049091320423
:101F3000681B790B072E000C880B990B0E94432C11
:101F40006B017C01C0924904D0924A04E0924B0498
:101F5000F0924C0460917D0470917E048091350470
:101F600090913604681B790B072E000C880B990B97
:101F70000E94432C2B013C0140924D0450924E0490
:101F800060924F047092500480917704909178048D
:101F9000843F21E0920709F40AC2803D27E09207BE
:101FA00049F18A3F910509F055C029E23CE54FE02F
:101FB0005CE3C501B4010E944F2D6093450470930A
:101FC0004604809347049093480429E23CE54FE09F
:101FD0005CE3C701B6010E944F2D609349047093E2
:101FE0004A0480934B0490934C0429E23CE54FE073
:101FF0005CE324C029E23CE54FE85DE3C501B401A0
:102000000E944F2D609345047093460480934704CB
:102010009093480429E23CE54FE85DE3C701B6012F
:102020000E944F2D6093490470934A0480934B049F
:1020300090934C0429E23CE54FE85DE3C301B20113
:102040000E944F2D60934D0470934E0480934F0473
:1020500090935004C0904504D0904604E09047040B
:10206000F09048048090390490903A04A0903B048A
:10207000B0903C04A5019401C701B6010E94442D13
:1020800087FF0AC0A50194015058C701B6010E94FC
:10209000A42B18160CF44BC020915104309152041B
:1020A0004091530450915404C701B6010E94C72ABD
:1020B0004B015C016091750470917604660F771F87
:1020C00090E080E00E94412C9B01AC01C501B4016D
:1020D0000E94A82B20915D0430915E0440915F0422
:1020E000509160040E94C72A60935D0470935E045F
:1020F00080935F0490936004C0925104D092520484
:10210000E0925304F09254048091690490916A041F
:10211000A0916B04B0916C040196A11DB11D809338
:10212000690490936A04A0936B04B0936C04C0900C
:102130004904D0904A04E0904B04F0904C04809005
:102140003D0490903E04A0903F04B0904004A5014F
:102150009401C701B6010E94442D87FF0AC0A50162
:1021600094015058C701B6010E94A42B18160CF414
:102170004BC0209155043091560440915704509122
:102180005804C701B6010E94C72A4B015C01609147
:10219000750470917604660F771F90E080E00E94CE
:1021A000412C9B01AC01C501B4010E94A82B2091D8
:1021B00061043091620440916304509164040E9470
:1021C000C72A6093610470936204809363049093C0
:1021D0006404C0925504D0925604E0925704F092E1
:1021E000580480916D0490916E04A0916F04B09199
:1021F00070040196A11DB11D80936D0490936E042F
:10220000A0936F04B0937004C0904D04D0904E041E
:10221000E0904F04F090500480904104909042046C
:10222000A0904304B0904404A5019401C701B601F5
:102230000E94442D87FF0AC0A50194015058C70190
:10224000B6010E94A42B18160CF44BC0209159041F
:1022500030915A0440915B0450915C04C701B6016F
:102260000E94C72A4B015C0160917504709176044D
:10227000660F771F90E080E00E94412C9B01AC012B
:10228000C501B4010E94A82B209165043091660419
:1022900040916704509168040E94C72A60936504C6
:1022A000709366048093670490936804C092590405
:1022B000D0925A04E0925B04F0925C048091710425
:1022C00090917204A0917304B09174040196A11DC1
:1022D000B11D8093710490937204A0937304B09322
:1022E0007404C0905D04D0905E04E0905F04F090B0
:1022F000600420E030E0A901C701B6010E94A42BD0
:1023000020E030E044EB53E487FF76C0C701B6011C
:102310000E94C72A60935D0470935E0480935F04FB
:1023200090936004C0906104D0906204E0906304D4
:10233000F090640420E030E0A901C701B6010E94DA
:10234000A42B20E030E044EB53E487FF64C0C701D6
:10235000B6010E94C72A609361047093620480935F
:10236000630490936404C0906504D0906604E09088
:102370006704F090680420E030E0A901C701B601CD
:102380000E94A42B20E030E044EB53E487FF52C0CE
:10239000C701B6010E94C72A609365047093660462
:1023A00080936704909368040F5F1F4F94CD29E2D8
:1023B0003CE54FE85CE3C501B4010E944F2D6093FA
:1023C000450470934604809347049093480429E29F
:1023D0003CE54FE85CE3C701B6010E944F2D6093D6
:1023E000490470934A0480934B0490934C0429E26F
:1023F0003CE54FE85CE322CEC701B6010E94442DC4
:1024000087FD90CF20E030E044EB53E4C701B601F4
:102410000E94C62A7FCFC701B6010E94442D87FDC6
:10242000A2CF20E030E044EB53E4C701B6010E94A4
:10243000C62A91CFC701B6010E94442D87FDB4CFB3
:1024400020E030E044EB53E4C701B6010E94C62A05
:10245000A3CF0F90DF91CF91FF91EF91BF91AF91FB
:102460009F918F917F916F915F914F913F912F91AC
:102470001F910F91FF90EF90DF90CF90BF90AF90A2
:102480009F908F907F906F905F904F900F900BBEBA
:102490000F900FBE0F901F90189540E06AEF70E00C
:1024A0008EEB90E019DC009721F421E020937F046B
:1024B00008958FEF9FEF0895CF93DF931F92CDB7CD
:1024C000DEB7BE016F5F7F4F8FE03AD8811104C045
:1024D00081E09981943D09F080E00F90DF91CF91E8
:1024E0000895CF93DF931F92CDB7DEB780917F041D
:1024F000823019F5BE016F5F7F4F8FE221D88823AC
:1025000041F060E070E080E090EC0F90DF91CF91BF
:102510000895898186FD09C0609165047091660403
:102520008091670490916804F0CFBE016F5F7F4F88
:102530008EE206D8882381F3E4CF60E070E080E883
:102540009FEBE3CF80917F04823099F5109269046C
:1025500010926A0410926B0410926C0410926D0435
:1025600010926E0410926F04109270041092710415
:1025700010927204109273041092740410925D040D
:1025800010925E0410925F04109260041092610435
:102590001092620410926304109264041092650415
:1025A00010926604109267041092680490E080E034
:1025B00008958FEF9FEF0895509825E02A95F1F741
:1025C000000081ED97E0489907C0019729F025E0C8
:1025D0002A95F1F70000F7CF89B180958170819538
:1025E0000895519A85E08A95F1F70000509885E0AA
:1025F0008A95F1F7000051980895519885E08A95E1
:10260000F1F70000D9DF811107C0499B03C0509A40
:1026100081E00895509A08958FEF0895CF93DF9346
:10262000D82FC8E0D7FF13C0519885E08A95F1F7FD
:102630000000C2DF81110DC0509A85E08A95F1F744
:102640000000DD0FC15071F7DF91CF91D6CF519AC5
:10265000ECCF8FEFDF91CF9108950F931F93CF931E
:10266000DF938C01D8E0C0E0519885E08A95F1F7BE
:102670000000A2DF811111C0CC0F4999C160509AAE
:1026800095E09A95F1F70000D15071F7F801C083F9
:10269000DF91CF911F910F9108958FEFF9CF51984E
:1026A00085E08A95F1F7000087DF81110BC095E086
:1026B0009A95F1F70000509A95E09A95F1F700008D
:1026C000519808958FEF0895519A85E08A95F1F712
:1026D000000072DF81110BC095E09A95F1F70000C0
:1026E000509A95E09A95F1F70000519808958FEF70
:1026F000089562DF811110C0519895E09A95F1F725
:102700000000519A95E09A95F1F70000509A95E0F3
:102710009A95F1F7000008958FEF08951F93CF93D6
:10272000DF93182FD0E0C0E0812F78DF882391F06D
:10273000C83E83E0D80761F095E09A95F1F7000074
:1027400050DF85E08A95F1F70000D3DF882361F040
:102750008FEF06C081E0C83ED34009F080E081954C
:10276000DF91CF911F9108952196DECF1F93CF93D4
:10277000DF9380918404882301F1162FDDB3EF9855
:10278000B8DFC82F8CE7CADFC80F80E447DFC80F67
:10279000812F44DFC80F25DF8DB3D078D82BDDBB68
:1027A00081E090E0C11102C090E080E091958195B8
:1027B0009109DF91CF911F9108958FEF9FEFF9CF8E
:1027C0001F93CF93DF93182FDDB3EF9892DFC82FBD
:1027D0008CE7A4DFC80F80E021DFC80F812F1EDF48
:1027E000C80FFFDE8DB3D078D82BDDBB80EA8A9589
:1027F000F1F781E0C11101C080E0DF91CF911F911D
:102800000895CF93DF938091070180628093070141
:10281000809108018F7D809308018FE19EE40197EC
:10282000F1F700C0000080910801806280930801E8
:10283000EFE1FEE43197F1F700C00000DDB3EF985F
:1028400089E3BEDFC82F84E1BBDFC80F87E7B8DFAD
:10285000C80F8DE5B5DFC80F8DE6B2DFC80F8CE07D
:10286000AFDFC80F86E0ACDFC80F80E8A9DFC80F74
:1028700081E0A6DF9DB3D078D92BDDBBEFE9FFE087
:102880003197F1F700C00000C80F8FEF9FEF29F4D8
:1028900081E08093840490E080E0DF91CF910895FF
:1028A00080918404811103C08FEF9FEF089581E030
:1028B00087DF8111F9CF8FE39FE10197F1F700C026
:1028C000000090E080E00895EF92FF920F931F9335
:1028D000CF93DF9380918404882349F17B01DDB39A
:1028E000EF9807DFC82F8CE719DFC80F80E496DE6A
:1028F000C80F8701F80181918F01882319F08EDEBE
:10290000C80FF8CF6EDE8DB3D078D82BDDBB81E059
:1029100090E0C11102C090E080E09195819591090D
:10292000DF91CF911F910F91FF90EF9008958FEF5E
:102930009FEFF6CF0F931F93CF93DF938091840483
:10294000882359F1623048F5403138F5142F062FAD
:10295000DDB3EF98CEDEC82F8CE7E0DEC80F80E055
:102960005DDEC80F812F0023B1F0806C57DEC80FE9
:1029700038DE8DB3D078D82BDDBB81E090E0C1117B
:1029800002C090E080E0919581959109DF91CF910F
:102990001F910F9108958068E9CF8FEF9FEFF6CFD9
:1029A00080918404882311F09C9AA49A0895E0E809
:1029B000F4E0138212828CEB93E09183808308957C
:1029C0000F931F93CF93DF93EC010DEA14E0F8010E
:1029D0002485358546855785688179818A819B81E3
:1029E0000E944F2D688379838A839B83F801208915
:1029F0003189428953896C817D818E819F810E94BA
:102A00004F2D6C837D838E839F83F80124893589C4
:102A100046895789688579858A859B850E944F2DCF
:102A2000688779878A879B87DF91CF911F910F9164
:102A300008950F931F93CF93DF93EC010DEA14E0F9
:102A4000F8012081318142815381688179818A81B5
:102A50009B810E94C62A688379838A839B83F801BD
:102A600024813581468157816C817D818E819F8152
:102A70000E94C62A6C837D838E839F83F801208504
:102A8000318542855385688579858A859B850E9435
:102A9000C62A688779878A879B87DF91CF911F91A4
:102AA0000F9108950F931F93CF93DF93082F162F45
:102AB000DDB3EF981EDEC82F8CE330DEC80F802F09
:102AC000ADDDC80F812FAADDC80F8BDD8DB3D078A7
:102AD000D82BDDBB81E0C11101C080E0DF91CF9137
:102AE0001F910F9108959F92AF92BF92CF92DF9264
:102AF000EF92FF920F931F93CF93DF931F92CDB767
:102B0000DEB7D82E962E7A010DB3EF98F2DD182F8E
:102B10008CE304DE180F8D2D806880DD180FE9DD51
:102B2000180F8DE3FBDD180F6701A92CB12CCE0126
:102B3000019693DD180F8981F60181936F01CF0112
:102B40008E199F09A816B906B1F44BDD8DB3007834
:102B5000082B0DBB81E0111101C080E00F90DF91C7
:102B6000CF911F910F91FF90EF90DF90CF90BF908A
:102B7000AF909F900895A8DD180F8C2D8E198915A0
:102B8000B0F2E4CFAF92BF92CF92DF92EF92FF927A
:102B90001F93CF93DF9300D000D0CDB7DEB77C0179
:102BA000611108C061E082E07DDF6599FECF60E0E1
:102BB00082E078DFAE014F5F5F4F66E083E093DF36
:102BC000182F811156C0698170E0762F66278A819F
:102BD000680F711D611580EF780709F44AC08D8177
:102BE00090E0982F8827CE80C80ED92ED11CC11412
:102BF000E0EFDE06F1F18B8190E0982F8827AC8022
:102C0000A80EB92EB11CA114F0EFBF0691F1072E4A
:102C1000000C880B990B0E94432CF7016083718391
:102C200082839383B601DD0C880B990B0E94432CA1
:102C3000F7016483758386839783B501BB0C880B8A
:102C4000990B0E94432CF7016087718782879387D5
:102C5000812F26960FB6F894DEBF0FBECDBFDF9151
:102C6000CF911F91FF90EF90DF90CF90BF90AF90EA
:102C7000089511E0EDCF2F923F924F925F926F92A5
:102C80007F928F929F92AF92BF92CF92DF92EF92FC
:102C9000FF920F931F93CF93DF93CDB7DEB72C979F
:102CA0000FB6F894DEBF0FBECDBF9C878B878B011C
:102CB0005A8749871901DC014D905D906D907C9099
:102CC000139714968D919D910D90BC91A02D8983A1
:102CD0009A83AB83BC83AB85BC8518968D919D91FF
:102CE0000D90BC91A02D8D839E83AF83B887A301E7
:102CF0009201C301B2010E944F2D6B017C01298119
:102D00003A814B815C81CA01B9010E944F2D9B0120
:102D1000AC01C701B6010E94C72A6B017C012D815D
:102D20003E814F815885CA01B9010E944F2D9B01F8
:102D3000AC01C701B6010E94C72A0E94B62D6B01E3
:102D40007C0120E030E0A9010E94A42B882309F433
:102D500096C0A701960160E070E080E89FE30E94C2
:102D6000A82B4B015C01A30192010E944F2DEB8522
:102D7000FC85608371838283938329813A814B81AF
:102D80005C81C501B4010E944F2DAB85BC851496B2
:102D90006D937D938D939C9317972D813E814F81E9
:102DA0005885C501B4010E944F2DEB85FC856087D5
:102DB000718782879387D101CD92DD92ED92FC924B
:102DC000139720813181428153816481758186818D
:102DD00097810E94512B905820EE3EE245E652E446
:102DE0000E944F2D6B017C0120E030E0A9010E9480
:102DF000A42B87FD35C0F801C082D182E282F38224
:102E0000EB85FC8560857185828593850E942B2BDF
:102E1000905820EE3EE245E652E40E944F2DA985EF
:102E2000BA856D937D938D939C93139780E02C9638
:102E30000FB6F894DEBF0FBECDBFDF91CF911F91CB
:102E40000F91FF90EF90DF90CF90BF90AF909F9049
:102E50008F907F906F905F904F903F902F9008954C
:102E600020E030E044EB53E4C701B6010E94C72ADA
:102E7000D8016D937D938D939C931397C1CF81E07F
:102E8000D6CFCF93DF931F92CDB7DEB76D98759AEB
:102E900060E082E007DE811130C068E103DE60E2BD
:102EA00081E000DE81E090E09093AC048093AB047D
:102EB000AE014F5F5F4F61E080E015DE6981637EA8
:102EC0006983686180E0EEDD4CE050E06CE070E02A
:102ED00089EB94E00E9479314CE050E070E060E0D2
:102EE0008DEA94E00E94793181E08093AA0490E019
:102EF00080E00F90DF91CF9108958FEF9FEFF9CF92
:102F0000CF93DF9300D0CDB7DEB7AE014F5F5F4FF9
:102F100063E08AE0E8DD81110AC09981983441F4C8
:102F20009A81943329F481E09B81933309F080E006
:102F30000F900F900F90DF91CF9108958F929F92F5
:102F4000AF92BF92CF92DF92EF92FF920F931F93B7
:102F5000CF93DF93CDB7DEB768970FB6F894DEBF97
:102F60000FBECDBF8091AA04811115C08FEF9FEFD6
:102F700068960FB6F894DEBF0FBECDBFDF91CF913C
:102F80001F910F91FF90EF90DF90CF90BF90AF9087
:102F90009F908F90089589017A016B0161E0CE01C5
:102FA0000196F0DD8111E2CFCE01019609DDCE015F
:102FB00001963FDD9E01235F3F4FAE014F5E5F4FA5
:102FC000BE016B5E7F4FCE01019655DE8111CECFE3
:102FD000E091AB04F091AC04EE0FFF1FE054FC4F06
:102FE00060817181072E000C880B990B0E94432C85
:102FF0009B01AC0160E070E088EC92E40E94A82B99
:103000002D853E854F8558890E944F2D4B015C01CF
:103010006D897E898F89988D0E94102CF6017183AD
:10302000608369897A898B899C890E94102CF701B9
:1030300071836083C501B4010E94102CF801718373
:10304000608390E080E094CF2F923F924F925F9206
:103050006F927F928F929F92AF92BF92CF92DF92A8
:10306000EF92FF920F931F93CF93DF93CDB7DEB70D
:103070006C970FB6F894DEBF0FBECDBF8091AA0447
:1030800081111BC08FEF9FEF6C960FB6F894DEBFD7
:103090000FBECDBFDF91CF911F910F91FF90EF90A9
:1030A000DF90CF90BF90AF909F908F907F906F9068
:1030B0005F904F903F902F9008958FEF860F833051
:1030C00008F0A3C1162F613009F0F0C0AE01435FD4
:1030D0005F4F63E080E007DD8111D4CF60E681E0DF
:1030E000E1DC61E180E0DEDC2FEF34E38CE02150B5
:1030F00030408040E1F700C0000061E082E0D2DCB7
:1031000060E0CE0101963EDD81117DC1C980DA808B
:10311000EB80FC80C701B6010E94102C7C8F6B8F66
:103120004D805E806F807884C301B2010E94102CB4
:103130007A8F698F89849A84AB84BC84C501B40179
:103140000E94102C1B0120E030E849E054E4C70144
:10315000B6010E94A42B87FD56C120E030E844E56B
:1031600054E4C701B6010E94442D18160CF44BC15B
:1031700020E030E849E054E4C301B2010E94A42BEE
:1031800087FD41C120E030E844E554E4C301B201C9
:103190000E94442D18160CF436C120E030E849E0B6
:1031A00054E4C501B4010E94A42B01E087FD0BC0CB
:1031B00020E030E844E554E4C501B4010E94442D08
:1031C00018160CF000E06D8580E06CDC81115ACFA0
:1031D0006E8581E067DC811155CF6F8582E062DC0E
:1031E000811150CF01114ECF2B8D3C8DB901330F82
:1031F000880B990B0E94432C9B01AC0160E070E8A6
:103200008FE394E40E94A82B6093B9047093BA04EE
:103210008093BB049093BC04298D3A8DB901330F80
:10322000880B990B0E94432C9B01AC0160E070E875
:103230008FE394E40E94A82B6093BD047093BE04B6
:103240008093BF049093C004B101330C880B990B99
:103250000E94432C9B01AC0160E070E482E394E4A3
:103260000E94A82B6093C1047093C2048093C3048E
:103270009093C4044CE050E06CE070E089EB94E083
:103280000E9489314CE050E06CE070E0CE010D9678
:103290000E9479314CE050E0BE01635F7F4F89EBC3
:1032A00094E00E948B2E892B09F0ECCE60E0CE01D9
:1032B000019668DC8111E6CE9FEF21EE34E091505B
:1032C00020403040E1F700C00000812F8150990B71
:1032D0009C014CE0429FC001439F900D11249C0132
:1032E0002A573B4F790160E0C9014CDC8111CACEFD
:1032F000C70166DB90E080E0133009F0C5CE209175
:1033000092043091930440919404509195046091FB
:1033100086047091870480918804909189040E94AA
:10332000C72A20E030E040E05FE30E944F2D609329
:10333000AD047093AE048093AF049093B0042091D9
:1033400096043091970440919804509199046091AB
:103350008A0470918B0480918C0490918D040E945A
:10336000C72A20E030E040E05FE30E944F2D6093E9
:10337000B1047093B2048093B3049093B404209189
:10338000A6043091A7044091A8045091A90460912B
:103390009A0470919B0480919C0490919D040E94DA
:1033A000C72A20E030E040E05FE30E944F2D6093A9
:1033B000B5047093B6048093B7049093B8044CE0BE
:1033C00050E070E060E08DEA94E00E9489314CE0CA
:1033D00050E070E060E0CE010D960E9479314CE043
:1033E00050E0BE01635F7F4F8DEA94E00E948B2E18
:1033F00021E030E0892B11F430E020E08827992784
:10340000821B930B41CE01E0DECE8EEF9FEF3CCED0
:103410001F920F920FB60F9211240BB60F922F939B
:103420003F934F935F938F939F93EF93FF932091DD
:10343000C704273008F05EC0822F90E0FC01EE0F39
:10344000FF1FE80FF91FE653FB4F8281882361F0CD
:1034500030910B0181E090E001C0880F2A95EAF7D6
:103460008095832380930B018091C70490E001969F
:10347000FC01EE0FFF1FE80FF91FE653FB4F2281FF
:10348000222361F090910B0121E030E001C0220F76
:103490008A95EAF7892F822B80930B018091C704CC
:1034A0008F5F8093C7042091860030918700409100
:1034B000C8045091C904240F351F3093C9042093C8
:1034C000C804883059F580E49CE9821B930B9093E3
:1034D000870080938600FF91EF919F918F915F917C
:1034E0004F913F912F910F900BBE0F900FBE0F90F9
:1034F0001F901895273041F48091E104882349F109
:1035000080910B018F77C8CF283041F68091CC0491
:10351000882389F180910B018160BECF893071F4DD
:103520001092C7041092C9041092C8048091CA0472
:103530009091CB040197880F991FC9CF90E0FC01AF
:10354000EE0FFF1FE80FF91FE653FB4F80819181BB
:10355000F1CF88E08093C7042091860030918700E6
:103560008091C8049091C904280F391F3093C90471
:103570002093C804A8CF8091860090918700D0CF77
:1035800088EE860F883008F050C0F8948091C60409
:10359000811131C081E08093C604109282001092A4
:1035A00081001092800010926F00809180008260F4
:1035B000809380008091810088618093810088EBF6
:1035C0009BE09093870080938600809181008260C9
:1035D0008093810080916F00816080936F00EAEC9E
:1035E000F4E08CED95E0128291838083339624E0A1
:1035F000E23EF207C1F76851770BFB01EE0FFF1FA8
:10360000E60FF71FE653FB4F81E0828380910A01AA
:1036100021E030E001C0220F6A95EAF7822B809307
:103620000A01789490E080E008958FEF9FEF08956D
:10363000CA01845F9140813D9740B8F488EE860FBF
:103640008830B0F46851770BFB01EE0FFF1FE60FD7
:10365000F71FE653FB4F8281882369F0F89451836A
:103660004083789490E080E008958FEF9FEF089575
:103670008EEF9FEF08958DEF9FEF089522B330E016
:103680008150990BA90102C0559547958A95E2F79B
:10369000CA01817008959898A09A9998A19A9A98C9
:1036A000A29A9B98A39A0895683008F08CC0862F40
:1036B00090E0FC01EE0FFF1FDF01A80FB91FA5531B
:1036C000B84F2C9120FD66C0F8947091020147E03C
:1036D00050E0481B590B21E030E0D90101C0AA0F8E
:1036E0004A95EAF75A2F509557235093020140917B
:1036F00001014A2B4093010161114FC02091070144
:103700002F7720930701209108012068209308015A
:10371000209168002460209368002091E304211127
:103720002DC021E02093E3041092A2001092A1008A
:103730001092A000109272001092A5001092A400A6
:103740002091A00022602093A0002091A100286178
:103750002093A10028EC30E03093A7002093A6002E
:103760002091A10022602093A1002091720021608D
:10377000209372001092F3076093F407E80FF91F8B
:10378000E553F84F80E991E09283818380818160E5
:103790008083789490E080E0089540910401DC01FA
:1037A000119701C0220FAA95EAF7322F30953423E2
:1037B0003093040130910501232B209305012091C2
:1037C00068002260A8CF8FEF9FEF08959FD00E94DE
:1037D000B7040E94B201CCE6D1E20E94D00120974A
:1037E000E1F37AD5FACF1F920F920FB60F92112400
:1037F0002F933F938F939F93AF93BF938091E50453
:103800009091E604A091E704B091E8043091E404BB
:1038100023E0230F2D3758F50196A11DB11D2093EC
:10382000E4048093E5049093E604A093E704B09346
:10383000E8048091E9049091EA04A091EB04B0912E
:10384000EC040196A11DB11D8093E9049093EA0454
:10385000A093EB04B093EC04BF91AF919F918F9133
:103860003F912F910F900FBE0F901F90189526E853
:10387000230F0296A11DB11DD2CF3FB7F8948091BE
:10388000E9049091EA04A091EB04B091EC0426B510
:10389000A89B05C02F3F19F00196A11DB11D3FBF88
:1038A000BA2FA92F982F8827BC01CD01620F711D57
:1038B000811D911D42E0660F771F881F991F4A9551
:1038C000D1F70895CF92DF92EF92FF92CF93DF93DB
:1038D0006B017C01D2DFEB01C114D104E104F104DE
:1038E00039F4DF91CF91FF90EF90DF90CF90089562
:1038F000C4DF6C1B7D0B683E734070F381E0C81A17
:10390000D108E108F108C851DC4FE6CF789484B5BE
:10391000826084BD84B5816084BD85B5826085BDCB
:1039200085B5816085BDEEE6F0E0808181608083B1
:10393000A0E8B0E01C92E1E8F0E010821092820072
:1039400010926F008081826080838081816080839B
:103950008C9181608C93E0EBF0E01082A1EBB0E001
:103960001C92109270008C9184608C938081816095
:103970008083A0E9B0E01C92E1E9F0E010821092AF
:1039800092001092710080818260808380818160CA
:1039900080838C9181608C93A0EAB0E01C92E1EA74
:1039A000F0E010821092A20010927200808182607A
:1039B00080838081816080838C9181608C93A0E280
:1039C000B1E01C92E1E2F1E010821092220110922B
:1039D00073008081826080838081816080838C918C
:1039E00081608C93EAE7F0E080818460808380814D
:1039F000806880831092C10008958150813108F061
:103A000055C0E82FF0E08827E75FF24E8F4F0C9407
:103A10005E2E241D281D1A1D201D561D2B1D311D17
:103A2000351D3B1D3F1D431D491D4D1D561D511D7F
:103A3000571D5B1D809180008F77809380000895D3
:103A4000809180008F7DF9CF84B58F7784BD0895F4
:103A500084B58F7DFBCF8091B0008F778093B000CD
:103A600008958091B0008F7DF9CF809190008F777D
:103A7000809390000895809190008F7DF9CF809180
:103A80009000877FF5CF8091A0008F778093A00072
:103A900008958091A0008F7DF9CF8091A000877F4D
:103AA000F5CF809120018F77809320010895809138
:103AB00020018F7DF9CF80912001877FF5CFCF93B3
:103AC000DF9390E0FC01E356FE4F249184519E4F1A
:103AD000FC0184918823C9F090E0880F991FFC01B4
:103AE000E159FD4FA591B491FC01EB5AFD4FC591F1
:103AF000D49161110DC09FB7F8948C9120958223C9
:103B00008C938881282328839FBFDF91CF910895CC
:103B1000623051F49FB7F8943C91822F80958323B3
:103B20008C93E8812E2BEFCF8FB7F894EC912E2B4E
:103B30002C938FBFEACF1F93CF93DF93282F30E0D2
:103B4000F901E25BFE4F8491F901E356FE4FD491F7
:103B5000F901E451FE4FC491CC23A1F0162F81113D
:103B60004CDFEC2FF0E0EE0FFF1FEB5AFD4FA5915D
:103B7000B4918FB7F894EC91111108C0D095DE2361
:103B8000DC938FBFDF91CF911F910895DE2BF8CF8B
:103B9000CF93DF93282F30E0F901E25BFE4F849151
:103BA000F901E356FE4FD491F901E451FE4FC4915F
:103BB000CC2399F0811121DFEC2FF0E0EE0FFF1FF5
:103BC000E55CFD4FA591B491EC91ED2381E090E08F
:103BD00009F480E0DF91CF91089580E090E0FACF82
:103BE0000F931F93CF93DF938230910510F482E0FF
:103BF00090E0E091C107F091C20730E020E0B0E032
:103C0000A0E0309799F42115310509F44AC0281B2A
:103C1000390B24303105D8F58A819B8161157105F6
:103C200089F1FB0193838283FE0111C040815181A0
:103C30000281138148175907E0F04817590799F492
:103C4000109761F012960C93129713961C9332966C
:103C5000CF01DF91CF911F910F9108950093C1077C
:103C60001093C207F4CF2115310551F042175307C5
:103C700038F0A901DB019A01BD01DF01F801C1CFD4
:103C8000EF01F9CF9093C2078093C107CDCFFE011A
:103C9000E20FF31F819391932250310939832883D6
:103CA000D7CF2091BF073091C007232B41F420913B
:103CB0000202309103023093C0072093BF07209186
:103CC0000002309101022115310541F42DB73EB7B4
:103CD0004091040250910502241B350BE091BF076F
:103CE000F091C007E217F307A0F42E1B3F0B281733
:103CF000390778F0AC014E5F5F4F2417350748F065
:103D00004E0F5F1F5093C0074093BF07819391935D
:103D10009FCFF0E0E0E09CCFCF93DF930097E9F0F6
:103D2000FC01329713821282A091C107B091C207A1
:103D3000ED0130E020E01097A1F420813181820F65
:103D4000931F2091BF073091C0072817390709F04A
:103D500061C0F093C007E093BF07DF91CF91089552
:103D6000EA01CE17DF07E8F54A815B819E01411524
:103D70005105B1F7E901FB83EA8349915991C40FD9
:103D8000D51FEC17FD0761F4808191810296840FA5
:103D9000951FE90199838883828193819B838A831C
:103DA000F0E0E0E012968D919C9113970097B9F5A1
:103DB0002D913C911197CD010296820F931F209176
:103DC000BF073091C0072817390739F6309751F5EA
:103DD0001092C2071092C107B093C007A093BF070B
:103DE000BCCFD383C28340815181840F951FC817F4
:103DF000D90761F44E5F5F4F88819981480F591F41
:103E0000518340838A819B8193838283211531056D
:103E100009F0B0CFF093C207E093C1079ECFFD0138
:103E2000DC01C0CF13821282D7CF4F925F926F9284
:103E30007F928F929F92AF92BF92CF92DF92EF923A
:103E4000FF920F931F93CF93DF938C01009791F410
:103E5000CB01DF91CF911F910F91FF90EF90DF90F9
:103E6000CF90BF90AF909F908F907F906F905F901A
:103E70004F90B6CEFC01E60FF71F9C01225031098E
:103E8000E217F30708F4ABC0D901CD91DC9111978B
:103E9000C617D70718F1C530D10570F0CE010497C9
:103EA0008617970748F0C61BD70B2297C193D1936B
:103EB0006D937C93CF0130DFC801DF91CF911F91CB
:103EC0000F91FF90EF90DF90CF90BF90AF909F90B9
:103ED0008F907F906F905F904F9008955B01AC1A28
:103EE000BD0A4C018C0E9D1EA091C107B091C20766
:103EF000512C412CF12CE12C109731F58091BF070A
:103F00009091C0078815990509F05CC046165706C0
:103F100008F058C08091000290910102009741F48E
:103F20008DB79EB74091040250910502841B950BFA
:103F3000E817F90708F053C0F093C007E093BF07F4
:103F4000F90171836083B8CF8D919C91119712967E
:103F50006C90129713967C901397A815B90559F594
:103F60006C0142E0C40ED11CCA14DB0420F1AC0188
:103F70004A195B09DA011296159780F06282738202
:103F800051834083D9016D937C93E114F10471F066
:103F9000D7011396FC93EE9312978ECF22968C0F37
:103FA0009D1FF90191838083F301EFCFF093C20746
:103FB000E093C10781CF4816590608F42C017D0112
:103FC000D3019ACFCB010CDE7C01009741F0AE010A
:103FD000B8010E94982EC8019FDE87016DCF10E0C6
:103FE00000E06ACFFC0124853585F901E05CFF4FD4
:103FF000808191812E5B3F4FF90120813181821BAD
:10400000930B8F7399270895FC0184859585FC0196
:10401000E05CFF4F4081518132962081318142170F
:10402000530741F020813181820F931FFC01808171
:1040300090E008958FEF9FEF0895DC011C968D911D
:104040009C91FC01E05CFF4F4081518132962081C0
:1040500031814217530781F020813181820F931FF4
:10406000DC018C91208131812F5F3F4F2F733327EB
:104070003183208390E008958FEF9FEF0895FC0136
:1040800091A1992329F0A489B5898C9186FFF9CF54
:1040900011A20895CF93DF93FC0126853785D901BE
:1040A000A05CBF4F8D919C91119701968F739927BA
:1040B000E901CE5BDF4F4881598148175907D9F391
:1040C0004D915C91240F351FD9016C93A685B7855E
:1040D000A05CBF4F11969C938E93A689B7898C9153
:1040E000978D21E030E001C0220F9A95EAF7822BEC
:1040F0008C9381E081A30488F589E02D8081806420
:10410000808381E090E0DF91CF910895FB01E05C36
:10411000FF4F20813181DB01AE5BBF4F4D915C9140
:104120002F5F3F4F2F7333274217530741F04081D2
:104130005181640F751FDB018C93318320830895B7
:1041400008951F920F920FB60F9211240BB60F9283
:104150002F933F934F935F936F937F938F939F938F
:10416000AF93BF93EF93FF938091C00082FD18C07F
:104170008091C60061E577E0C9DFFF91EF91BF91C3
:10418000AF919F918F917F916F915F914F913F91EF
:104190002F910F900BBE0F900FBE0F901F90189590
:1041A0008091C600EACF08951F920F920FB60F922A
:1041B00011240BB60F922F933F934F935F936F93FE
:1041C0007F938F939F93AF93BF93EF93FF938091D0
:1041D000C80082FD18C08091CE0069EC76E096DFC1
:1041E000FF91EF91BF91AF919F918F917F916F91CF
:1041F0005F914F913F912F910F900BBE0F900FBE8B
:104200000F901F9018958091CE00EACF08951F92CD
:104210000F920FB60F9211240BB60F922F933F936C
:104220004F935F936F937F938F939F93AF93BF93BE
:10423000EF93FF938091D00082FD18C08091D6004B
:1042400061E476E063DFFF91EF91BF91AF919F91C1
:104250008F917F916F915F914F913F912F910F902F
:104260000BBE0F900FBE0F901F9018958091D60037
:10427000EACF08951F920F920FB60F9211240BB63A
:104280000F922F933F934F935F936F937F938F93EF
:104290009F93AF93BF93EF93FF938091300182FD83
:1042A00018C08091360169EB75E030DFFF91EF9126
:1042B000BF91AF919F918F917F916F915F914F913E
:1042C0003F912F910F900BBE0F900FBE0F901F903C
:1042D000189580913601EACF83E595E083DE892B3E
:1042E00009F02EDF81E395E07DDE892B09F05BDFAD
:1042F0008FE095E077DE892B09F088DF8DEE94E082
:1043000071DE892B09F0B5CF08951F920F920FB679
:104310000F9211240BB60F922F933F938F939F937D
:10432000EF93FF9320914D0730914E0780914F07F7
:10433000909150072817390791F48091C1008F7D23
:104340008093C100FF91EF919F918F913F912F91A9
:104350000F900BBE0F900FBE0F901F901895E0911D
:104360004F07F0915007E35FF84F208180914F078E
:104370009091500701968F739927909350078093DF
:104380004F072093C600DECF1F920F920FB60F92F9
:1043900011240BB60F922F933F938F939F93EF931C
:1043A000FF932091C5063091C6068091C706909173
:1043B000C8062817390791F48091C9008F7D809332
:1043C000C900FF91EF919F918F913F912F910F9095
:1043D0000BBE0F900FBE0F901F901895E091C7066F
:1043E000F091C806EB57F94F20818091C706909154
:1043F000C80601968F7399279093C8068093C706C5
:104400002093CE00DECF1F920F920FB60F92112491
:104410000BB60F922F933F938F939F93EF93FF933E
:1044200020913D0630913E0680913F0690914006D6
:104430002817390791F48091D1008F7D8093D100A6
:10444000FF91EF919F918F913F912F910F900BBE14
:104450000F900FBE0F901F901895E0913F06F091BE
:104460004006E350FA4F208180913F06909140062C
:1044700001968F7399279093400680933F0620936F
:10448000D600DECF1F920F920FB60F9211240BB6FB
:104490000F922F933F938F939F93EF93FF932091CE
:1044A000B5053091B6058091B7059091B8052817EC
:1044B000390791F4809131018F7D80933101FF9113
:1044C000EF919F918F913F912F910F900BBE0F9085
:1044D0000FBE0F901F901895E091B705F091B805A9
:1044E000EB58FA4F20818091B7059091B80501965D
:1044F0008F7399279093B8058093B7052093360161
:10450000DECFCF92DF92EF92FF92CF93DF93EC0159
:104510006A017B01C11481EED806E104F10409F0BF
:104520004FC0EC89FD89108260E874E88EE190E06C
:10453000A70196010E94202E2150310941095109FD
:104540005695479537952795E889F9893083EA8903
:10455000FB89208319A2EE89FF8920813C8D81E0AF
:1045600090E0AC0101C0440F3A95EAF7242B208378
:10457000EE89FF8920813D8DAC0101C0440F3A9541
:10458000EAF7242B2083EE89FF8920813E8DAC0140
:1045900001C0440F3A95EAF7242B2083EE89FF8966
:1045A00020813F8D01C0880F3A95EAF780958223DC
:1045B0008083DF91CF91FF90EF90DF90CF900895AF
:1045C000EC89FD8928A181E090E001C0880F2A953F
:1045D000EAF7808360E079E08DE390E0A70196013F
:1045E0000E94202E215031094109510956954795C5
:1045F00037952795211580E1380708F092CFA4CF91
:10460000CF93DF93FC0186859785DC01A05CBF4FCB
:104610008E5B9F4F4D915C911197EC012881398100
:1046200042175307B9F7A689B7894C91248D81E0C9
:1046300090E0BC0102C0660F771F2A95E2F79B014C
:10464000209524232C93A689B7894C91258DEC01C4
:1046500002C0CC0FDD1F2A95E2F79E01209524238E
:104660002C93A689B7894C91268DBC0102C0660F98
:10467000771F2A95E2F79B01209524232C93A68986
:10468000B7892C91378D01C0880F3A95EAF780954C
:1046900082238C9384859585FC01EE5BFF4F2081FE
:1046A0003181805C9F4FEC0139832883DF91CF916A
:1046B0000895CF92DF92EF92FF92E3E5F5E0138247
:1046C000128288EEC82E83E0D82EE12CF12CC48211
:1046D000D582E682F78264ED73E07183608381E5C1
:1046E00097E0958784878DE097E09787868785ECAC
:1046F00090E0918B808B84EC90E0938B828B80ECAC
:1047000090E0958B848B81EC90E0978B868B82EC8C
:1047100090E0918F808F86EC90E0938F828F44E0C1
:10472000448F33E0358F27E0268F95E0978F81E027
:1047300080A3E1E3F5E013821282C482D582E6828F
:10474000F78271836083A9ECB6E0B587A487A5E8FA
:10475000B6E0B787A687ADECB0E0B18BA08BACEC30
:10476000B0E0B38BA28BA8ECB0E0B58BA48BA9EC26
:10477000B0E0B78BA68BAAECB0E0B18FA08FAEEC07
:10478000B0E0B38FA28F448F358F268F978F80A391
:10479000EFE0F5E013821282C482D582E682F782CE
:1047A00071836083A1E4B6E0B587A487ADEFB5E07F
:1047B000B787A687A5EDB0E0B18BA08BA4EDB0E0E4
:1047C000B38BA28BA0EDB0E0B58BA48BA1EDB0E0D4
:1047D000B78BA68BA2EDB0E0B18FA08FA6EDB0E0B5
:1047E000B38FA28F448F358F268F978F80A3EDEEE6
:1047F000F4E013821282C482D582E682F78271834A
:10480000608369EB75E07587648765E775E0778796
:10481000668765E371E0718B608B64E371E0738B95
:10482000628B60E371E0758B648B61E371E0778B81
:10483000668B62E371E0718F608F66E371E0738F66
:10484000628F448F358F268F978F80A3FF90EF90D4
:10485000DF90CF9008954F925F926F927F928F92E8
:104860009F92AF92BF92CF92DF92EF92FF920F93FF
:104870001F93CF93DF9300D01F921F92CDB7DEB767
:104880008B0129013A01909106028917C9F09F3FD7
:1048900009F490C00F900F900F900F900F90DF9140
:1048A000CF911F910F91FF90EF90DF90CF90BF902D
:1048B000AF909F908F907F906F905F904F900895F2
:1048C000E9E8F2E024912D8327FDE4CF61E0F7D8F9
:1048D0002D81222321F08D81823009F011C24801FF
:1048E000B12CA12C60E072E18AE790E0A50198016B
:1048F0000E94422E29833A834B835C8369017A01AB
:1049000091E0C91AD108E108F1082FEFC216D104CD
:10491000E104F10409F00CF4C5C160E472E48FE035
:1049200090E0A50198010E94422E69017A0181E080
:10493000C81AD108E108F1089D81923009F03AC106
:1049400082E02FEFC216D104E104F10409F00CF467
:1049500080C160E970ED83E090E0A50198010E94BC
:10496000422E69017A0181E0C81AD108E108F108F4
:1049700083E09FEFC916D104E104F10409F00CF4BF
:1049800068C168E478EE81E090E0A50198010E949A
:10499000422E69017A0181E0C81AD108E108F108C4
:1049A0009FEFC916D104E104F10411F00CF054C1D9
:1049B00084E04FC180930602E9E8F2E094919D8380
:1049C0009F3F09F467CF923009F480C058F49923CF
:1049D00009F436C0913009F453C097FD5BCF61E014
:1049E0006ED879CF2D81243009F4BEC008F494C06C
:1049F000253099F710922001109221019091210108
:104A000098609093210190912101916090932101F0
:104A1000282F30E0F901E451FE4FE491F0E0EE0F71
:104A2000FF1FEB5AFD4F45915491509397074093C8
:104A30009607F901E356FE4FE491E093950746CFC0
:104A400014BC15BC94B5926094BD95B5916095BDAC
:104A5000282F30E0F901E451FE4FE491F0E0EE0F31
:104A6000FF1FEB5AFD4F459154915093BA07409365
:104A7000B907F901E356FE4FE491E093B80726CF5A
:104A80001092800010928100909181009860909324
:104A9000810090918100916090938100282F30E0F7
:104AA000F901E451FE4FE491F0E0EE0FFF1FEB5AE5
:104AB000FD4F459154915093B3074093B207F901CC
:104AC000E356FE4FE491E093B10700CF1092B0009F
:104AD0001092B1009091B00092609093B0009091CC
:104AE000B10091609093B100282F30E0F901E451BA
:104AF000FE4FE491F0E0EE0FFF1FEB5AFD4F4591A2
:104B000054915093AC074093AB07F901E356FE4F25
:104B1000E491E093AA07DACE1092900010929100EF
:104B20009091910098609093910090919100916084
:104B300090939100282F30E0F901E451FE4FE49169
:104B4000F0E0EE0FFF1FEB5AFD4F4591549150934B
:104B5000A5074093A407F901E356FE4FE491E093C3
:104B6000A30793E09D83B2CE1092A0001092A10003
:104B70009091A10098609093A1009091A100916004
:104B80009093A100282F30E0F901E451FE4FE49109
:104B9000F0E0EE0FFF1FEB5AFD4F459154915093FB
:104BA0009E0740939D07F901E356FE4FE491E09381
:104BB0009C078CCE2FEFC216D104E104F10409F05A
:104BC0000CF49CC068E478EE81E090E0A5019801C7
:104BD0000E94422E69017A0181E0C81AD108E108D9
:104BE000F1089D81992309F47DC19FEFC916D10475
:104BF000E104F10409F00CF4DBCE62E17AE780E035
:104C000090E0A50194010E94422E69017A0181E0A1
:104C1000C81AD108E108F1089D81992309F447C118
:104C200086E09FEFC916D104E104F10491F088F009
:104C3000C980DA80EB80FC808AE0F594E794D79411
:104C4000C7948A95D1F781E0C81AD108E108F10824
:104C500087E08093B1002BC064E274EF80E090E0C5
:104C6000A50194010E94422E69017A0181E0C81ACF
:104C7000D108E108F10885E09FEFC916D104E104ED
:104C8000F10439F330F362E17AE780E090E0A501C6
:104C90009401F8D769017A0181E0C81AD108E108C6
:104CA000F108BECF81E02D812111D3CF85BD2FEF3B
:104CB0003FEFA901411451046104710409F048C097
:104CC0009D81923009F4E3C00CF0CAC0992309F425
:104CD000CFC0913009F0DECDD0928900C09288001B
:104CE0002093B4073093B5074093B6075093B707A6
:104CF00080916F00826080936F00CCCD82E0D3CF33
:104D0000B12CA12C60E072E18AE790E0A501980146
:104D1000B9D769017A0181E0C81AD108E108F10820
:104D2000C114D10491E0E906F104F4F491E02D817D
:104D3000213051F580918100887F892B80938100FB
:104D40002FEF3FEFA901411451046104710421F2D6
:104D5000D801AA0FBB1FA3019201D3D728EE33E0DD
:104D600040E050E06DD7ACCF68E478EE81E090E0B1
:104D7000A501980187D769017A0181E0C81AD10895
:104D8000E108F10893E0D3CF8D81833001F5809164
:104D90009100887F892B809391002FEF3FEFA9012D
:104DA000411451046104710499F6D0929900C092A3
:104DB00098002093A6073093A7074093A807509325
:104DC000A9078091710082608093710063CD2D816D
:104DD000243009F58091A100887F892B8093A10060
:104DE0002FEF3FEFA901411451046104710409F050
:104DF000AFCFD092A900C092A80020939F07309314
:104E0000A0074093A1075093A2078091720082608F
:104E1000809372003FCD8D81853009F048CF80911D
:104E20002101887F892B809321012FEF3FEFA9017A
:104E3000411451046104710409F08ACFD092290110
:104E4000C0922801209398073093990740939A07BE
:104E500050939B07809173008260809373001ACDFA
:104E60008D81843031F20CF4A0CF853039F312CD2E
:104E7000C7BC2093BB073093BC074093BD0750933A
:104E8000BE0780916E00826080936E0003CDC09259
:104E9000B3002093AD073093AE074093AF07509314
:104EA000B00780917000826080937000F3CC84E042
:104EB0002FEFC216D104E104F10409F008F4F6CE94
:104EC000C980DA80EB80FC809AE0F594E794D7946F
:104ED000C7949A95D1F791E0C91AD108E108F10871
:104EE00085E0E4CE83E02FEFC216D104E104F104A3
:104EF00011F00CF082CEDACE8230A9F028F48823AB
:104F000049F0813051F00895843009F1E8F085309E
:104F100009F1089510926E00089580916F008D7FC1
:104F200080936F000895809170008D7F8093700052
:104F300081E08093B0008091B100887F846080938D
:104F4000B1001092B300089510927100089510926C
:104F500072000895109273000895CF93C82F809126
:104F600006028C130CC0E9E8F2E084919FEF909365
:104F70000602C2DF61E08C2FCF910C949B1D8FEF56
:104F8000F8CF1F920F920FB60F9211240BB60F920B
:104F90002F933F934F935F936F937F938F939F9341
:104FA000AF93BF93EF93FF938091AD079091AE07BE
:104FB000A091AF07B091B007892B8A2B8B2BE1F121
:104FC0009091AA07E091AB07F091AC078081892707
:104FD00080838091AD079091AE07A091AF07B0910B
:104FE000B007181619061A061B069CF48091AD0727
:104FF0009091AE07A091AF07B091B0070197A109BA
:10500000B1098093AD079093AE07A093AF07B0931B
:10501000B007FF91EF91BF91AF919F918F917F91D9
:105020006F915F914F913F912F910F900BBE0F9019
:105030000FBE0F901F901895809106028EDFE9CF6A
:105040001F920F920FB60F9211240BB60F922F934F
:105050003F934F935F936F938F939F93EF93FF9340
:105060008091F407482F50E09091F307FA01EE0F7A
:10507000FF1FE40FF51FE553F84F208120FD22C0EC
:10508000933009F4A3C08FE59AEE9093A700809324
:10509000A60083E08093F3071092A5001092A4006D
:1050A0008FEF89BBFF91EF919F918F916F915F91EE
:1050B0004F913F912F910F900BBE0F900FBE0F900D
:1050C0001F901895911139C09BB397609BBB8111BC
:1050D00027C090916D00906890936D0090910201AF
:1050E00047E050E0481B510921E030E001C0220FA9
:1050F0004A95EAF7892F822B8093020181E0809301
:10510000F3071092F6071092F5071092F807109225
:10511000F70784E190E09093A7008093A600BCCFAE
:1051200090916C0021E030E0082E01C0220F0A941B
:10513000EAF7922B90936C00D1CF9130B1F460914B
:10514000020127E030E0241B350B81E090E001C034
:10515000880F2A95EAF7809586238093020182E0E2
:105160008093F3078FE59AEED6CF923061F59BB32B
:1051700097609BBB811119C090916D009F779093B0
:105180006D002091F7073091F807232B09F081CFAC
:1051900090E0FC01EE0FFF1FE80FF91FE553F84FF9
:1051A00080E991E09283818374CF90916C0021E03B
:1051B00030E0082E01C0220F0A94EAF72095292337
:1051C00020936C00DECF933009F066CF98E08F5FBC
:1051D000883008F080E0282F30E0F901EE0FFF1F43
:1051E000E20FF31FE553F84F408140FF24C0809346
:1051F000F40781110FC08091060187FF06C080E986
:1052000091E09093CD078093CC071092F30788EC40
:1052100090E081CF8091030190E02150310902C0DC
:10522000959587952A95E2F780FFEFCF80E991E089
:1052300092838183EACF915051F68093F4072CCF6B
:105240001F920F920FB60F9211240BB60F922F934D
:105250003F934F935F936F937F938F939F93AF93FE
:10526000BF93EF93FF938091F3078230C9F480914D
:105270000301E091F4072E2F30E090E0A9014150A6
:10528000510902C0959587954A95E2F780FFF1C0D4
:105290008091A4009091A5009093F6078093F50764
:1052A00080916C00882309F4D1C080916C00882320
:1052B000B9F08091E5079091E607892B89F08091FC
:1052C000030181709091C407891751F08091030107
:1052D00081708093C407E091E507F091E607199586
:1052E00080916C008823C9F08091E7079091E807CE
:1052F000892B99F080910301869581709091C50763
:10530000891759F080910301869581708093C507B4
:10531000E091E707F091E807199580916C008823E8
:10532000D9F08091E9079091EA07892BA9F0809143
:10533000030182FB882780F99091C607891761F0E5
:105340008091030182FB882780F98093C607E09152
:10535000E907F091EA07199580916C008823D9F04C
:105360008091EB079091EC07892BA9F080910301C4
:1053700083FB882780F99091C707891761F0809196
:10538000030183FB882780F98093C707E091EB072F
:10539000F091EC07199580916C008823C9F08091F9
:1053A000ED079091EE07892B99F08091030182958A
:1053B00081709091C807891759F0809103018295F7
:1053C00081708093C807E091ED07F091EE07199581
:1053D00080916C008823D9F08091EF079091F007BD
:1053E000892BA9F08091030185FB882780F9909192
:1053F000C907891761F08091030185FB882780F92F
:105400008093C907E091EF07F091F007199580911B
:105410006C008823D9F08091F1079091F207892BD5
:10542000A9F08091030186FB882780F99091CA0733
:10543000891761F08091030186FB882780F98093AA
:10544000CA07E091F107F091F2071995FF91EF91EA
:10545000BF91AF919F918F917F916F915F914F918C
:105460003F912F910F900BBE0F900FBE0F901F908A
:1054700018954091F5075091F6074115510509F42B
:105480000FCF8091A4009091A5009093F80780938E
:10549000F707F901EE0FFF1FE20FF31FE553F84F77
:1054A000841B950B64E770E0B7D372836183F8CEF9
:1054B0001F920F920FB60F9211240BB60F922F93DB
:1054C0003F934F935F936F937F938F939F93AF938C
:1054D000BF93EF93FF938091F307823061F4809143
:1054E000060187FF3AC08091A4009091A500909397
:1054F000F6078093F50780916D008823D9F080919D
:10550000E3079091E407892BA9F080910601881F99
:105510008827881F9091C307981761F08091060132
:10552000881F8827881F8093C307E091E307F091C5
:10553000E4071995FF91EF91BF91AF919F918F91E2
:105540007F916F915F914F913F912F910F900BBE83
:105550000F900FBE0F901F9018952091F507309176
:10556000F6072115310539F28091A4009091A5002C
:105570009093F8078093F707821B930B64E770E022
:105580004BD37093CD076093CC07B5CF5058BB2752
:10559000AA270ED03FC230D230F035D220F031F4FD
:1055A0009F3F11F41EF4EFC10EF4E095E7FBE5C157
:1055B000E92F41D280F3BA17620773078407950772
:1055C00018F071F49EF559C20EF4E0950B2EBA2F27
:1055D000A02D0B01B90190010C01CA01A0011124F9
:1055E000FF27591B99F0593F50F4503E68F11A16A5
:1055F000F040A22F232F342F4427585FF3CF469536
:1056000037952795A795F0405395C9F77EF41F1657
:10561000BA0B620B730B840BBAF09150A1F0FF0F21
:10562000BB1F661F771F881FC2F70EC0BA0F621F0D
:10563000731F841F48F4879577956795B795F795FD
:105640009E3F08F0B3CF9395880F08F09927EE0F8F
:105650009795879508959F939F77EEE389379E07E7
:1056600020F4E4EEF0E0B7D109C048D19058A2EAA6
:105670002AED3FE049EC5FE39BDFCCD10F9007FCC4
:1056800090580895B9D158F080E891E009F49EEF60
:10569000BAD128F040E851E059F45EEF09C073C177
:1056A000ECC1E92FE078C7D168F3092E052AC1F3D0
:1056B000261737074807590738F00E2E07F8E02558
:1056C00069F0E025E0640AC0EF6307F8009407FA88
:1056D000DB01B9019D01DC01CA01AD01EF9347D0A7
:1056E00099D10AD05F91552331F02BED3FE049E489
:1056F00050FD49EC4CCF0895DF93DD27B92FBF77DC
:1057000040E85FE31616170648075B0710F4D92F29
:10571000BFD19F938F937F936F9366D2E8EFF0E0B2
:1057200035D178D12F913F914F915F91C4D1DD2335
:1057300049F09058A2EA2AED3FE049EC5FE3D078C7
:105740005D2736DFDF9166C1F4D008F481E008956B
:105750000CD060C158D140F04FD130F021F45F3F00
:1057600019F00BC151118AC10EC165D198F399236B
:10577000C9F35523B1F3951B550BBB27AA27621715
:105780007307840738F09F5F5F4F220F331F441F5A
:10579000AA1FA9F333D00E2E3AF0E0E830D0915092
:1057A0005040E695001CCAF729D0FE2F27D0660F7F
:1057B000771F881FBB1F261737074807AB07B0E8BE
:1057C00009F0BB0B802DBF01FF2793585F4F2AF0D4
:1057D0009E3F510568F0D1C051C15F3FECF3983E48
:1057E000DCF3869577956795B795F7959F5FC9F731
:1057F000880F911D9695879597F90895E1E0660FBA
:10580000771F881FBB1F621773078407BA0720F032
:10581000621B730B840BBA0BEE1F88F7E09508959B
:1058200004D06894B1112AC108950DD188F09F5712
:1058300090F0B92F9927B751A0F0D1F0660F771FDC
:10584000881F991F1AF0BA95C9F712C0B13081F0BC
:1058500014D1B1E0089511C1672F782F8827B85F60
:1058600039F0B93FCCF3869577956795B395D9F71D
:105870003EF490958095709561957F4F8F4F9F4F27
:105880000895E89409C097FB3EF490958095709533
:1058900061957F4F8F4F9F4F9923A9F0F92F96E97C
:1058A000BB279395F695879577956795B795F111F1
:1058B000F8CFFAF4BB0F11F460FF1BC06F5F7F4F8E
:1058C0008F4F9F4F16C0882311F096E911C07723A0
:1058D00021F09EE8872F762F05C0662371F096E8A9
:1058E000862F70E060E02AF09A95660F771F881F78
:1058F000DAF7880F9695879597F90895DF93CF93F8
:105900001F930F938B01EC01E5E2F1E03FD082D0D1
:105910009801AE018B01EC0160E070E080E89FE34C
:1059200035DE24D19801AE010F911F91CF91DF9107
:10593000C2C0990F0008550FAA0BE0E8FEEF16163B
:105940001706E807F907C0F012161306E407F50773
:1059500098F0621B730B840B950B39F40A2661F0E7
:10596000232B242B252B21F408950A2609F4A1408A
:10597000A6958FEF811D811D089597F99F6780E897
:1059800070E060E008959FEF80EC0895DF93CF937F
:105990001F930F93FF92EF92DF927B018C0168942B
:1059A00005C0DA2EEF0187D0FE01E894A59125917C
:1059B000359145915591AEF3EF01FADDFE01970166
:1059C000A801DA9479F7DF90EF90FF900F911F9183
:1059D000CF91DF9108959F938F937F936F93FF9360
:1059E000EF939B01AC015BD0EF91FF91CFDF2F9143
:1059F0003F914F915F9153C000240A9416161706E9
:105A000018060906089500240A94121613061406AF
:105A100005060895092E0394000C11F4882352F012
:105A2000BB0F40F4BF2B11F460FF04C06F5F7F4FCA
:105A30008F4F9F4F089557FD9058440F551F59F0B1
:105A40005F3F71F04795880F97FB991F61F09F3F6B
:105A500079F087950895121613061406551FF2CF94
:105A60004695F1DF08C0161617061806991FF1CFE4
:105A700086957105610508940895E894BB2766270B
:105A80007727CB0197F9089554DF08F48FEF089535
:105A90009B01AC0160E070E080E89FE359CE0BD041
:105AA000B9CFAADF28F0AFDF18F0952309F065CF52
:105AB0006ACF1124E3CFBFDFA0F3959FD1F3950FF9
:105AC00050E0551F629FF001729FBB27F00DB11D82
:105AD000639FAA27F00DB11DAA1F649F6627B00D12
